{
  "contractName": "Yashvi",
  "abi": [
    {
      "inputs": [
        {
          "internalType": "uint256",
          "name": "_food",
          "type": "uint256"
        },
        {
          "internalType": "uint256",
          "name": "_transport",
          "type": "uint256"
        },
        {
          "internalType": "uint256",
          "name": "_stay",
          "type": "uint256"
        }
      ],
      "name": "getExpenses",
      "outputs": [],
      "stateMutability": "nonpayable",
      "type": "function"
    },
    {
      "inputs": [],
      "name": "returnBalance",
      "outputs": [
        {
          "internalType": "uint256",
          "name": "",
          "type": "uint256"
        }
      ],
      "stateMutability": "view",
      "type": "function"
    }
  ],
  "bytecode": "0x608060405261271060005534801561001657600080fd5b50610245806100266000396000f3fe608060405234801561001057600080fd5b50600436106100365760003560e01c8063900551a81461003b578063dad651fb14610059575b600080fd5b610043610075565b60405161005091906100d9565b60405180910390f35b610073600480360381019061006e9190610125565b6100a6565b005b600060035460025460015461008a91906101a7565b61009491906101a7565b6000546100a191906101db565b905090565b826001819055508160028190555080600381905550505050565b6000819050919050565b6100d3816100c0565b82525050565b60006020820190506100ee60008301846100ca565b92915050565b600080fd5b610102816100c0565b811461010d57600080fd5b50565b60008135905061011f816100f9565b92915050565b60008060006060848603121561013e5761013d6100f4565b5b600061014c86828701610110565b935050602061015d86828701610110565b925050604061016e86828701610110565b9150509250925092565b7f4e487b7100000000000000000000000000000000000000000000000000000000600052601160045260246000fd5b60006101b2826100c0565b91506101bd836100c0565b92508282019050808211156101d5576101d4610178565b5b92915050565b60006101e6826100c0565b91506101f1836100c0565b925082820390508181111561020957610208610178565b5b9291505056fea2646970667358221220e695533ff09ba91760803b25cf642d39d99b687ebb166df4de2ea995ca42941064736f6c63430008110033",
  "immutableReferences": {},
  "source": "//Yashvi Mehta BE Comps 2019130037\n// SPDX-License-Identifier: GPL-3.0\n\npragma solidity ^0.8.0;\n\ncontract Yashvi{\n\n    uint limit=10000;\n    uint food;\n    uint transport;\n    uint stay;\n\n    function getExpenses(uint _food, uint _transport, uint _stay) public {\n        food = _food;\n        transport = _transport;\n        stay = _stay;\n    }\n    function returnBalance() public view returns (uint){\n        return limit-(food+transport+stay);\n    }\n}\n",
  "sourcePath": "/Users/yashvimehta/Downloads/truffletutorial/New/contracts/creditcard.sol",
  "compiler": {
    "name": "solc",
    "version": "0.8.17+commit.8df45f5f.Emscripten.clang"
  },
  "schemaVersion": "3.4.10",
  "updatedAt": "2022-11-01T09:48:23.112Z",
  "devdoc": {
    "kind": "dev",
    "methods": {},
    "version": 1
  },
  "userdoc": {
    "kind": "user",
    "methods": {},
    "version": 1
  }
}